:100000000C9434000C9446000C9446000C9446006A
:100010000C9446000C9446000C9446000C94460048
:100020000C9446000C9446000C9446000C94460038
:100030000C9446000C9446000C9446000C94460028
:100040000C9446000C9446000C947D000C944600E1
:100050000C9446000C9446000C9446000C94460008
:100060000C9446000C94460011241FBECFEFD8E03C
:10007000DEBFCDBF21E0A0E0B1E001C01D92A930FC
:10008000B207E1F70E94E6000C9414010C94000002
:100090009B01AC0160E472E48FE090E00E94F2000A
:1000A000215031093093C5002093C40088E9809322
:1000B000C10086E08093C20044E060E071E084E02B
:1000C00091E00C94A500CF93DF931F92CDB7DEB7DC
:1000D000BE016F5F7F4F84E091E00E94AC008130F1
:1000E000B9F389810F90DF91CF9108959091C0006D
:1000F00095FFFCCF8093C60008951F920F920FB614
:100100000F9211242F933F934F935F936F937F939D
:100110008F939F93AF93BF93EF93FF936091C6002C
:1001200084E091E00E94C700FF91EF91BF91AF91F1
:100130009F918F917F916F915F914F913F912F91FF
:100140000F900FBE0F901F901895FC017183608374
:100150004483128213820895FC012FB7F894928190
:100160008381981303C02FBF81E0089581E0890F38
:100170003481831708F080E0A081B181A90FB11DFF
:100180009C91DB019C9382832FBF80E00895FC014A
:100190002FB7F89483818F5F9481891708F080E0EE
:1001A0003FB7F8949281891307C091E0980F44817A
:1001B000941708F090E092833FBF9381A081B181B2
:1001C000A90FB11D6C9383832FBF089560E875E27A
:1001D00080E090E00E94480078940E9463000E94B2
:1001E0007600FBCFA1E21A2EAA1BBB1BFD010DC09E
:1001F000AA1FBB1FEE1FFF1FA217B307E407F507D7
:1002000020F0A21BB30BE40BF50B661F771F881FB2
:10021000991F1A9469F760957095809590959B0148
:0C022000AC01BD01CF010895F894FFCFA0
:00000001FF
