:100000000C9434000C9451000C9451000C94510049
:100010000C9451000C9451000C9451000C9451001C
:100020000C9451000C9451000C9451000C9451000C
:100030000C9451000C9451000C9451000C945100FC
:100040000C9451000C9451000C9496000C945100A7
:100050000C9451000C9451000C9451000C945100DC
:100060000C9451000C94510011241FBECFEFD8E026
:10007000DEBFCDBF11E0A0E0B1E0EAE1F9E002C0EF
:1000800005900D92A234B107D9F721E0A2E4B1E0C6
:1000900001C01D92A535B207E1F70E94FF000C9444
:1000A0008B040C9400009091C00095FFFCCF8093CE
:1000B000C60080E090E00895CF93DF931F92CDB704
:1000C000DEB7BE016F5F7F4F8AE491E00E94C500FA
:1000D0008130B9F3898190E00F90DF91CF9108953D
:1000E0009B01AC0160E472E48FE090E00E941D018E
:1000F000215031093093C5002093C40088E98093D2
:10010000C10086E08093C20048E062E471E08AE4C6
:1001100091E00E94BE00EFE4F1E08EE091E0938375
:10012000828380E091E09183808308951F920F92F3
:100130000FB60F9211242F933F934F935F936F93BA
:100140007F938F939F93AF93BF93EF93FF936091B0
:10015000C6008AE491E00E94E000FF91EF91BF9118
:10016000AF919F918F917F916F915F914F913F914F
:100170002F910F900FBE0F901F901895FC01718367
:1001800060834483128213820895FC012FB7F89490
:1001900092818381981303C02FBF81E0089581E08D
:1001A000890F3481831708F080E0A081B181A90F05
:1001B000B11D9C91DB019C9382832FBF80E0089549
:1001C000FC012FB7F89483818F5F9481891708F021
:1001D00080E03FB7F8949281891307C091E0980FAF
:1001E0004481941708F090E092833FBF9381A081EF
:1001F000B181A90FB11D6C9383832FBF089560E86F
:1002000075E280E090E00E94700078948CE191E0CB
:100210000E949301CBE2D1E080914F019091500177
:100220000E943F019F938F93DF93CF930E947D01A4
:100230000F900F900F900F90EFCFA1E21A2EAA1BF4
:10024000BB1BFD010DC0AA1FBB1FEE1FFF1FA21786
:10025000B307E407F50720F0A21BB30BE40BF50B83
:10026000661F771F881F991F1A9469F7609570950C
:10027000809590959B01AC01BD01CF010895CF936E
:10028000DF93EC012B8120FF33C026FF0AC02F7BB8
:100290002B838E819F8101969F838E838A8190E03C
:1002A00029C022FF0FC0E881F9818081082E000C4F
:1002B000990B009719F420622B831AC03196F983A9
:1002C000E8830EC0EA85FB85099597FF09C02B815D
:1002D000019611F080E201C080E1822B8B8308C07F
:1002E0002E813F812F5F3F4F3F832E83992702C08E
:1002F0008FEF9FEFDF91CF910895A0E0B0E0E3E8AA
:10030000F1E00C946404AE014B5F5F4FFA01619120
:100310007191AF0180915101909152010E94C301EE
:10032000E2E00C9480040F931F93CF93DF93E0914E
:100330005101F0915201238121FF1BC08C01D0E0BB
:10034000C0E0F80181918F016091510170915201DB
:10035000DB011896ED91FC911997882331F00995EE
:10036000892B79F3DFEFCFEFECCF8AE00995892B6A
:1003700019F08FEF9FEF02C08D2F9C2FDF91CF914F
:100380001F910F910895ABE0B0E0E9ECF1E00C941F
:1003900054046C017B018A01FC011782168283815F
:1003A00081FFCCC1CE0101963C01F6019381F7019A
:1003B00093FD859193FF81917F01882309F4BAC150
:1003C000853239F493FD859193FF81917F018532C8
:1003D00029F4B60190E00E94BA03E7CF912C212CBA
:1003E000312CFFE1F315D8F08B3279F038F48032FC
:1003F00079F08332A1F4232D20611DC08D3261F08C
:10040000803369F4232D216016C0832D8260382E3D
:10041000E32DE4603E2E2AC0F32DF8601DC037FCAA
:100420002DC020ED280F2A3040F08E32B9F436FC72
:1004300081C1232D2064322E19C036FE06C08AE009
:10044000989E200D1124922E11C0EAE02E9E200DC0
:100450001124222EF32DF0623F2E08C08C3621F499
:10046000832D8068382E02C0883641F4F70193FD51
:10047000859193FF81917F018111B3CF982F9F7D4B
:100480009554933028F40C5F1F4F9FE399830DC060
:10049000833631F0833771F0833509F059C021C0BC
:1004A000F801808189830E5F1F4F88248394912CEB
:1004B000530113C02801F2E04F0E511CF801A08037
:1004C000B18036FE03C0692D70E002C06FEF7FEF90
:1004D000C5010E94AF034C018201F32DFF773F2E2F
:1004E00016C0280122E0420E511CF801A080B18004
:1004F00036FE03C0692D70E002C06FEF7FEFC501CB
:100500000E94A4034C01F32DF0683F2E820133FCBE
:100510001BC0822D90E088169906B0F4B60180E2E7
:1005200090E00E94BA032A94F4CFF50137FC85913C
:1005300037FE81915F01B60190E00E94BA0321105D
:100540002A9421E0821A91088114910471F7E8C07D
:10055000843611F0893641F5F80137FE07C0608115
:100560007181828193810C5F1F4F08C0608171810E
:10057000072E000C880B990B0E5F1F4FF32DFF7693
:100580003F2E97FF09C090958095709561957F4F9C
:100590008F4F9F4FF0683F2E2AE030E0A3010E946A
:1005A000F603882E861845C0853731F4232D2F7E1B
:1005B000B22E2AE030E025C0932D997FB92E8F36D8
:1005C000C1F018F4883579F0B5C0803719F0883754
:1005D00021F0B0C0E92FE061BE2EB4FE0DC0FB2DAE
:1005E000F460BF2E09C034FE0AC0292F2660B22E47
:1005F00006C028E030E005C020E130E002C020E184
:1006000032E0F801B7FE07C0608171818281938179
:100610000C5F1F4F06C06081718180E090E00E5F2B
:100620001F4FA3010E94F603882E8618FB2DFF772B
:100630003F2E36FE0DC0232D2E7FA22E891458F496
:1006400034FE0BC032FC09C0832D8E7EA82E05C05F
:10065000B82CA32C03C0B82C01C0B92CA4FE0FC029
:10066000FE01E80DF11D8081803321F49A2D997EE1
:10067000A92E09C0A2FE06C0B394B39404C08A2D6B
:10068000867809F0B394A3FC11C0A0FE06C0B21492
:1006900088F4280C922C9B180EC0B21460F4B6019A
:1006A00080E290E00E94BA03B394F7CFB21418F43A
:1006B0002B1802C0982C212CA4FE10C0B60180E398
:1006C00090E00E94BA03A2FE17C0A1FC03C088E715
:1006D00090E002C088E590E0B6010CC08A2D8678D3
:1006E00059F0A1FE02C08BE201C080E2A7FC8DE2BE
:1006F000B60190E00E94BA03891438F4B60180E391
:1007000090E00E94BA039A94F7CF8A94F301E80D1F
:10071000F11D8081B60190E00E94BA038110F5CFEF
:10072000222009F442CEB60180E290E00E94BA0392
:100730002A94F6CFF6018681978102C08FEF9FEF52
:100740002B96E2E10C947004FC010590615070401E
:100750000110D8F7809590958E0F9F1F0895FC018A
:100760006150704001900110D8F7809590958E0FE0
:100770009F1F08950F931F93CF93DF93FB01238156
:1007800021FD03C08FEF9FEF2CC022FF16C04681D2
:100790005781248135814217530744F4A081B181E8
:1007A0009D012F5F3F4F318320838C9326813781BA
:1007B0002F5F3F4F3783268314C08B01EC01FB0171
:1007C0000084F185E02D0995892BE1F6D801169674
:1007D0008D919C911797019617969C938E931697DF
:1007E000CE01DF91CF911F910F910895FA01AA27B1
:1007F000283051F1203181F1E8946F936E7F6E5F64
:100800007F4F8F4F9F4FAF4FB1E03ED0B4E03CD011
:10081000670F781F891F9A1FA11D680F791F8A1FF4
:10082000911DA11D6A0F711D811D911DA11D20D05B
:1008300009F468943F912AE0269F11243019305D15
:100840003193DEF6CF010895462F4770405D419306
:10085000B3E00FD0C9F7F6CF462F4F70405D4A3353
:1008600018F0495D31FD4052419302D0A9F7EACF1B
:10087000B4E0A6959795879577956795BA95C9F74A
:1008800000976105710508959B01AC010A2E06943D
:100890005795479537952795BA95C9F7620F731FF6
:1008A000841F951FA01D08952F923F924F925F9233
:1008B0006F927F928F929F92AF92BF92CF92DF9270
:1008C000EF92FF920F931F93CF93DF93CDB7DEB7D5
:1008D000CA1BDB0B0FB6F894DEBF0FBECDBF099469
:1008E0002A88398848885F846E847D848C849B84C0
:1008F000AA84B984C884DF80EE80FD800C811B81CE
:10090000AA81B981CE0FD11D0FB6F894DEBF0FBEFC
:0A091000CDBFED010895F894FFCF6C
:10091A00000000010000000000005C000000000070
:10092A0000020000000053000000000048656C6CE3
:10093A006F20576F726C6420210D004361726163EE
:10094A0074C3A87265207265C3A7753A2025630D22
:02095A000A0091
:00000001FF
