:100000000C9434000C9446000C9446000C9446006A
:100010000C9446000C9446000C9446000C94460048
:100020000C9446000C9446000C9446000C94460038
:100030000C9446000C9446000C9446000C94460028
:100040000C9446000C9446000C9448000C94460016
:100050000C9446000C9446000C9446000C94460008
:100060000C9446000C94460011241FBECFEFD8E03C
:10007000DEBFCDBF21E0A0E0B1E001C01D92A53000
:10008000B207E1F70E9442010C948E010C9400002B
:100090001F920F920FB60F9211242F933F934F93FD
:1000A0005F936F937F938F939F93AF93BF93EF93E0
:1000B000FF936091C60080E091E00E94CC009BB16C
:1000C00080E189278BB9FF91EF91BF91AF919F910B
:1000D0008F917F916F915F914F913F912F910F90F1
:1000E0000FBE0F901F9018959B01AC0184E0220F6A
:1000F000331F441F551F8A95D1F760E074E284EFE7
:1001000090E00E946C01DA01C9010197A109B109CF
:100110008093C400892F9A2FAB2FBB278093C500F3
:10012000E2ECF0E0808186608083E1ECF0E08081A9
:100130008861808380818068808308951F93CF9336
:10014000DF931F92CDB7DEB71FB7F894BE016F5F84
:100150007F4F80E091E00E941E011FBF882319F0AD
:10016000789480E002C0789489810F90DF91CF91DC
:100170001F9108959091C00095FFFCCF8093C60019
:100180008091C00086FFFCCF0895FC0171836083DD
:100190001282138244830895CF93DF93FC018381FD
:1001A000A081B181A80FB11D6C93828193812481BC
:1001B000811113C0492F50E030E02150310942171E
:1001C000530741F481E0828313820190F081E02D96
:1001D000108231C09F5F93832EC0682F70E0422F42
:1001E00050E041505109A081B181EB012197641782
:1001F000750779F4492F50E04C175D0731F41282EE
:1002000021502383A20FB11D15C06417750771F427
:100210000BC0292F30E02C173D0719F48F5F828324
:1002200005C04217530711F4138204C09F5F9383E4
:10023000A90FB11D1C92DF91CF910895CF93DF9349
:10024000FC01DB0122818381281303C01C9281E021
:1002500016C030E0848190E0019740815181EA012D
:10026000C20FD31F2817390721F488818C9312827B
:1002700005C088818C9382818F5F828380E0DF91CB
:10028000CF910895CF93DF93CDB7DEB7C456D10990
:100290000FB6F894DEBF0FBECDBF549A83B7817FEF
:1002A00083BF44E6BE016F5F7F4F80E091E00E9414
:1002B000C50060E875E280E090E00E9474007894E8
:1002C00083B7816083BF889583B78E7F83BF0E9489
:1002D0009E000E94BA00F4CFA1E21A2EAA1BBB1BFB
:1002E000FD010DC0AA1FBB1FEE1FFF1FA217B30702
:1002F000E407F50720F0A21BB30BE40BF50B661F18
:10030000771F881F991F1A9469F7609570958095DB
:1003100090959B01AC01BD01CF010895F894FFCFEA
:00000001FF
