:100000000C9434000C9446000C9446000C9446006A
:100010000C9446000C9446000C9446000C94460048
:100020000C9446000C9446000C9446000C94460038
:100030000C9446000C9446000C9446000C94460028
:100040000C9446000C9446000C9448000C94460016
:100050000C9446000C9446000C9446000C94460008
:100060000C9446000C94460011241FBECFEFD8E03C
:10007000DEBFCDBF21E0A0E0B1E001C01D92A53000
:10008000B207E1F70E9448010C9494010C9400001F
:100090001F920F920FB60F9211242F933F934F93FD
:1000A0005F936F937F938F939F93AF93BF93EF93E0
:1000B000FF936091C60080E091E00E94CC009BB16C
:1000C00080E189278BB9FF91EF91BF91AF919F910B
:1000D0008F917F916F915F914F913F912F910F90F1
:1000E0000FBE0F901F9018959B01AC0184E0220F6A
:1000F000331F441F551F8A95D1F760E074E284EFE7
:1001000090E00E947201DA01C9010197A109B109C9
:100110008093C400892F9A2FAB2FBB278093C500F3
:10012000E2ECF0E0808186608083E1ECF0E08081A9
:100130008861808380818068808308951F93CF9336
:10014000DF931F92CDB7DEB71FB7F894BE016F5F84
:100150007F4F80E091E00E9424011FBF882319F0A7
:10016000789480E002C0789489810F90DF91CF91DC
:100170001F9108959091C00095FFFCCF8093C60019
:100180008091C00086FFFCCF0895FC0171836083DD
:100190001282138244830895CF93DF93FC018381FD
:1001A000A081B181A80FB11D6C93928183812481BC
:1001B00091110FC0482F50E030E021503109421713
:1001C000530739F581E0828313820190F081E02D9D
:1001D00018C0692F70E0422F50E041505109EB01E7
:1001E000219764177507C1F4482F50E04C175D073D
:1001F00059F41282215023830190F081E02DE20F07
:10020000F11D8AE080831DC06417750711F4138205
:1002100018C08F5F838315C0282F30E0A081B18183
:100220002C173D0719F49F5F928305C042175307AF
:1002300011F4138204C08F5F8383A80FB11D8AE07D
:100240008C93DF91CF910895CF93DF93FC01DB0175
:1002500022818381281303C01C9281E016C030E004
:10026000848190E0019740815181EA01C20FD31F40
:100270002817390721F488818C93128205C0888160
:100280008C9382818F5F828380E0DF91CF9108958C
:10029000CF93DF93CDB7DEB7C456D1090FB6F8942C
:1002A000DEBF0FBECDBF549A83B7817F83BF44E6C4
:1002B000BE016F5F7F4F80E091E00E94C50060E863
:1002C00075E280E090E00E947400789483B78160CA
:1002D00083BF889583B78E7F83BF0E949E000E9454
:1002E000BA00F4CFA1E21A2EAA1BBB1BFD010DC060
:1002F000AA1FBB1FEE1FFF1FA217B307E407F507D6
:1003000020F0A21BB30BE40BF50B661F771F881FB1
:10031000991F1A9469F760957095809590959B0147
:0C032000AC01BD01CF010895F894FFCF9F
:00000001FF
