:100000000C9434000C9451000C9451000C94510049
:100010000C9451000C9451000C9451000C9451001C
:100020000C9451000C9451000C9451000C9451000C
:100030000C9451000C9451000C9451000C945100FC
:100040000C9451000C9451000C9453000C945100EA
:100050000C9451000C9451000C9451000C945100DC
:100060000C9451000C94510011241FBECFEFD8E026
:10007000DEBFCDBF11E0A0E0B1E0EAE1FAE002C0EE
:1000800005900D92A633B107D9F721E0A6E3B1E0C0
:1000900001C01D92A134B207E1F70E9453010C94F4
:1000A0000B050C9400001F920F920FB60F921124B3
:1000B0002F933F934F935F936F937F938F939F9370
:1000C000AF93BF93EF93FF936091C60086E391E0F7
:1000D0000E94D70095B180E2892785B9FF91EF9101
:1000E000BF91AF919F918F917F916F915F914F9150
:1000F0003F912F910F900FBE0F901F9018959B016D
:10010000AC0184E0220F331F441F551F8A95D1F79D
:1001100060E074E284EF90E00E94A301DA01C9017B
:100120000197A109B1098093C400892F9A2FAB2FA1
:10013000BB278093C500E2ECF0E08081866080837D
:10014000E1ECF0E080818861808380818068808339
:1001500008951F93CF93DF931F92CDB7DEB71FB7DC
:10016000F894BE016F5F7F4F86E391E00E942F01FC
:100170001FBF882319F0789480E002C078948981A9
:100180000F90DF91CF911F9108959091C00095FF3E
:10019000FCCF8093C6008091C00086FFFCCF0895FD
:1001A000FC01718360831282138244830895CF938C
:1001B000DF93FC018381A081B181A80FB11D6C93F5
:1001C00092818381248191110FC0482F50E030E04B
:1001D000215031094217530739F581E08283138298
:1001E0000190F081E02D18C0692F70E0422F50E09F
:1001F00041505109EB01219764177507C1F4482F4D
:1002000050E04C175D0759F412822150238301906E
:10021000F081E02DE20FF11D8AE080831DC064179C
:10022000750711F4138218C08F5F838315C0282FC0
:1002300030E0A081B1812C173D0719F49F5F9283B4
:1002400005C04217530711F4138204C08F5F8383E4
:10025000A80FB11D8AE08C93DF91CF910895CF93C1
:10026000DF93FC01DB0122818381281303C01C92F0
:1002700081E016C030E0848190E001974081518197
:10028000EA01C20FD31F2817390721F488818C9304
:10029000128205C088818C9382818F5F828380E087
:1002A000DF91CF910895CF93DF93CDB7DEB7C85CD0
:1002B000D1090FB6F894DEBF0FBECDBF259A8EE0F0
:1002C00091E090933E0180933D0180E091E0909316
:1002D0003C0180933B0183B7817F83BF44E6BE012D
:1002E0006B597F4F86E391E00E94D00060E875E291
:1002F00080E090E00E947F007894CE0101967C011E
:100300000CE111E083B7816083BF889583B78E7F4E
:1003100083BFC7010E94C501209138018091360139
:1003200090913701820F911D9F938F93FF92EF92CF
:100330001F930F930E94EF010F900F900F900F905B
:100340000F900F90DFCFA1E21A2EAA1BBB1BFD015D
:100350000DC0AA1FBB1FEE1FFF1FA217B307E407A4
:10036000F50720F0A21BB30BE40BF50B661F771FFC
:10037000881F991F1A9469F76095709580959095DC
:100380009B01AC01BD01CF0108950F931F93CF9343
:10039000DF93E0913B01F0913C01238120FD03C0FC
:1003A00080E090E017C0C92FD82F082F192F809117
:1003B0003B0190913C010E94FC038F3F2FEF92077D
:1003C00079F3F80181938F010A9789F731971082A9
:1003D0008D2F9C2FDF91CF911F910F910895A0E059
:1003E000B0E0E5EFF1E00C94E404AE014B5F5F4F49
:1003F000FA0161917191AF0180913D0190913E01AF
:100400000E940502E2E00C940005ABE0B0E0EBE0F6
:10041000F2E00C94D4046C017B018A01FC01178288
:100420001682838181FFCCC1CE0101963C01F60189
:100430009381F70193FD859193FF81917F0188233B
:1004400009F4BAC1853239F493FD859193FF819106
:100450007F01853229F4B60190E00E943A04E7CF8B
:10046000912C212C312CFFE1F315D8F08B3279F04F
:1004700038F4803279F08332A1F4232D20611DC03D
:100480008D3261F0803369F4232D216016C0832DF5
:100490008260382EE32DE4603E2E2AC0F32DF860F2
:1004A0001DC037FC2DC020ED280F2A3040F08E32C1
:1004B000B9F436FC81C1232D2064322E19C036FEDA
:1004C00006C08AE0989E200D1124922E11C0EAE009
:1004D0002E9E200D1124222EF32DF0623F2E08C0F7
:1004E0008C3621F4832D8068382E02C0883641F482
:1004F000F70193FD859193FF81917F018111B3CF26
:10050000982F9F7D9554933028F40C5F1F4F9FE3E5
:1005100099830DC0833631F0833771F0833509F04C
:1005200059C021C0F801808189830E5F1F4F882444
:100530008394912C530113C02801F2E04F0E511CFB
:10054000F801A080B18036FE03C0692D70E002C0C2
:100550006FEF7FEFC5010E94F1034C018201F32D83
:10056000FF773F2E16C0280122E0420E511CF801F1
:10057000A080B18036FE03C0692D70E002C06FEF2D
:100580007FEFC5010E94E6034C01F32DF0683F2E7A
:10059000820133FC1BC0822D90E088169906B0F4CE
:1005A000B60180E290E00E943A042A94F4CFF5016B
:1005B00037FC859137FE81915F01B60190E00E9482
:1005C0003A0421102A9421E0821A9108811491049E
:1005D00071F7E8C0843611F0893641F5F80137FE2D
:1005E00007C060817181828193810C5F1F4F08C0B9
:1005F00060817181072E000C880B990B0E5F1F4FD5
:10060000F32DFF763F2E97FF09C09095809570954A
:1006100061957F4F8F4F9F4FF0683F2E2AE030E06B
:10062000A3010E947604882E861845C0853731F4D0
:10063000232D2F7EB22E2AE030E025C0932D997F06
:10064000B92E8F36C1F018F4883579F0B5C08037EF
:1006500019F0883721F0B0C0E92FE061BE2EB4FE5A
:100660000DC0FB2DF460BF2E09C034FE0AC0292F37
:100670002660B22E06C028E030E005C020E130E060
:1006800002C020E132E0F801B7FE07C0608171814D
:10069000828193810C5F1F4F06C06081718180E071
:1006A00090E00E5F1F4FA3010E947604882E8618EB
:1006B000FB2DFF773F2E36FE0DC0232D2E7FA22E61
:1006C000891458F434FE0BC032FC09C0832D8E7E91
:1006D000A82E05C0B82CA32C03C0B82C01C0B92C7F
:1006E000A4FE0FC0FE01E80DF11D8081803321F4CE
:1006F0009A2D997EA92E09C0A2FE06C0B394B39488
:1007000004C08A2D867809F0B394A3FC11C0A0FE22
:1007100006C0B21488F4280C922C9B180EC0B21498
:1007200060F4B60180E290E00E943A04B394F7CFFF
:10073000B21418F42B1802C0982C212CA4FE10C05F
:10074000B60180E390E00E943A04A2FE17C0A1FC2B
:1007500003C088E790E002C088E590E0B6010CC0D5
:100760008A2D867859F0A1FE02C08BE201C080E29A
:10077000A7FC8DE2B60190E00E943A04891438F497
:10078000B60180E390E00E943A049A94F7CF8A94ED
:10079000F301E80DF11D8081B60190E00E943A045A
:1007A0008110F5CF222009F442CEB60180E290E01C
:1007B0000E943A042A94F6CFF6018681978102C0FE
:1007C0008FEF9FEF2B96E2E10C94F004FC01059073
:1007D000615070400110D8F7809590958E0F9F1F43
:1007E0000895FC016150704001900110D8F7809588
:1007F00090958E0F9F1F0895CF93DF93EC012B816F
:1008000020FF33C026FF0AC02F7B2B838E819F8160
:1008100001969F838E838A8190E029C022FF0FC0BA
:10082000E881F9818081082E000C990B009719F45A
:1008300020622B831AC03196F983E8830EC0EA85C3
:10084000FB85099597FF09C02B81019611F080E285
:1008500001C080E1822B8B8308C02E813F812F5FF6
:100860003F4F3F832E83992702C08FEF9FEFDF9189
:10087000CF9108950F931F93CF93DF93FB012381B3
:1008800021FD03C08FEF9FEF2CC022FF16C04681D1
:100890005781248135814217530744F4A081B181E7
:1008A0009D012F5F3F4F318320838C9326813781B9
:1008B0002F5F3F4F3783268314C08B01EC01FB0170
:1008C0000084F185E02D0995892BE1F6D801169673
:1008D0008D919C911797019617969C938E931697DE
:1008E000CE01DF91CF911F910F910895FA01AA27B0
:1008F000283051F1203181F1E8946F936E7F6E5F63
:100900007F4F8F4F9F4FAF4FB1E03ED0B4E03CD010
:10091000670F781F891F9A1FA11D680F791F8A1FF3
:10092000911DA11D6A0F711D811D911DA11D20D05A
:1009300009F468943F912AE0269F11243019305D14
:100940003193DEF6CF010895462F4770405D419305
:10095000B3E00FD0C9F7F6CF462F4F70405D4A3352
:1009600018F0495D31FD4052419302D0A9F7EACF1A
:10097000B4E0A6959795879577956795BA95C9F749
:1009800000976105710508959B01AC010A2E06943C
:100990005795479537952795BA95C9F7620F731FF5
:1009A000841F951FA01D08952F923F924F925F9232
:1009B0006F927F928F929F92AF92BF92CF92DF926F
:1009C000EF92FF920F931F93CF93DF93CDB7DEB7D4
:1009D000CA1BDB0B0FB6F894DEBF0FBECDBF099468
:1009E0002A88398848885F846E847D848C849B84BF
:1009F000AA84B984C884DF80EE80FD800C811B81CD
:100A0000AA81B981CE0FD11D0FB6F894DEBF0FBEFB
:0A0A1000CDBFED010895F894FFCF6B
:100A1A0000000001000000000000A9000000000022
:100A2A00000200000000C50000000000436172617E
:100A3A006374C3A8726520656E7472C3A93A25737C
:060A4A002C2025730000C2
:00000001FF
