:100000000C943B000C9458000C9458000C94720112
:100010000C9458000C9458000C942F040C94580025
:100020000C9458000C9458000C9458000C945B01EC
:100030000C9458000C9458000C9458000C945800E0
:100040000C945A000C9458000C94DF030C94580044
:100050000C9458000C9458000C9458000C945800C0
:100060000C9458000C9458003101CE00E600B50005
:10007000FF0018019C0011241FBECFEFD8E0DEBFA7
:10008000CDBF11E0A0E0B1E0ECEBF0E102C00590E3
:100090000D92A034B107D9F721E0A0E4B1E001C08E
:1000A0001D92A03EB207E1F70E94C4040C945C08C4
:1000B0000C9400001F920F920FB60F9211248F9391
:1000C00087B58F5F87BD8F910F900FBE0F901F90E8
:1000D000189583B7817F83BF60E870E085E090E08A
:1000E0000E94FC02569A17BC16BC08951F93CF932A
:1000F000DF93C82FD62F10E6C63020F06D2F84E096
:100100000E94760010937C00DE3631F0D93711F072
:10011000DEE6F2CFC86A01C0C06AC0937A00DF9100
:10012000CF911F9108958730910508F0B2C0FC016E
:10013000EC5CFF4F0C94CF041F9286E08F938AE211
:1001400091E09F938F931F9281E08F9380E491E0E1
:100150009F938F930E944E058DB79EB708960FB65A
:10016000F8949EBF0FBE8DBF08951F9283E08F93BA
:100170008AE291E09F938F931F9281E08F9380E4B6
:1001800091E09F938F930E944E058DB79EB708967E
:100190000FB6F8949EBF0FBE8DBF08951F9281E0E9
:1001A0008F932AE231E03F932F931F928F9380E445
:1001B00091E09F938F930E944E058DB79EB708964E
:1001C0000FB6F8949EBF0FBE8DBF08951F9282E0B8
:1001D0008F938AE291E09F938F931F9281E08F9398
:1001E00080E491E09F938F930E944E058DB79EB758
:1001F00008960FB6F8949EBF0FBE8DBF08951F924C
:1002000084E08F938AE291E09F938F931F9281E025
:100210008F9380E491E09F938F930E944E058DB75A
:100220009EB708960FB6F8949EBF0FBE8DBF089577
:100230001F9285E08F938AE291E09F938F931F92A4
:1002400081E08F9380E491E09F938F930E944E050D
:100250008DB79EB708960FB6F8949EBF0FBE8DBFA0
:1002600008951F921F928AE291E09F938F931F92AD
:1002700081E08F9380E491E09F938F930E944E05DD
:100280008DB79EB708960FB6F8949EBF0FBE8DBF70
:1002900008958DE291E00C941E058091400108952F
:1002A0006091DE017091DF0180914001082E000C09
:1002B000990B0C94E2041F920F920FB60F92112427
:1002C0008F939F93809141018F5F8093410195B1FE
:1002D00080E2892785B99F918F910F900FBE0F9073
:1002E0001F9018951F920F920FB60F9211248F93A3
:1002F000EF93FF93EBE6F0E080818160808381E003
:1003000080934201FF91EF918F910F900FBE0F905C
:100310001F9018951092420181E080936B008093AA
:100320006800259A64E082E19AE70E944B0380E02E
:1003300090E00E941B031092410181E00E94F102B3
:1003400080914101843120F4809142018823C1F3DE
:1003500080916B00816080936B000E945703109224
:10036000410180914201811103C086E090E008952F
:1003700080E090E008958FEF93E00E94E30721E092
:1003800030E0813110F420E030E0C9010895CF92CF
:10039000DF92EF92FF920F931F93CF93DF93CDB72E
:1003A000DEB764970FB6F894DEBF0FBECDBF6C0109
:1003B0008FEF93E00E94E307082F85E1E82EF12CF0
:1003C00010E01017A9F044E150E0B701CE0101960A
:1003D0000E94D30744E150E0B601CE0101960E948D
:1003E000D50429E3E20EF11C892B21F01F5FE9CF30
:1003F0008FEF01C0812F64960FB6F894DEBF0FBE59
:10040000CDBFDF91CF911F910F91FF90EF90DF90C3
:10041000CF900895CF92DF92EF92FF920F931F93A8
:10042000CF93DF936C018B017A018FEF93E00E94F1
:10043000E307D82FC8010E94C701C82F0E94BB0143
:10044000892B19F0CF3F51F426C0CF3F39F461E03A
:100450006D0F8FEF93E00E941708CD2F89E3C89F9F
:10046000E001112445E150E0BE01C6010E940D08E3
:10047000BE016B5E7F4F44E150E0C8010E94EB0774
:10048000BE01675D7F4F40E150E0C7010E940D084B
:1004900080E090E002C085E090E0DF91CF911F9175
:1004A0000F91FF90EF90DF90CF900895EF92FF9221
:1004B0000F931F93CF93DF937C01CB018A010E949E
:1004C000C7018F3FA9F099E3899FE001112445E11D
:1004D00050E0BE01C7010E94D307BE01675D7F4F98
:1004E00040E150E0C8010E94D30780E090E002C0E4
:1004F00084E090E0DF91CF911F910F91FF90EF90FA
:100500000895FC01718360834483128213820895ED
:10051000FC012FB7F89492818381981303C02FBFF9
:1005200081E0089581E0890F3481831708F080E02D
:10053000A081B181A90FB11D9C91DB019C938283A5
:100540002FBF80E00895FC012FB7F89483818F5F5F
:100550009481891708F080E03FB7F894928189135D
:1005600007C091E0980F4481941708F090E09283BF
:100570003FBF9381A081B181A90FB11D6C9383838B
:100580002FBF0895CF93DF93D82FC62F863018F052
:1005900081E00E94C202C33731F0C43739F0C3365C
:1005A00039F480E801C080EC84BD06C080E4FCCF53
:1005B00064E78D2F0E94C202D5BD82E080936E0059
:1005C000DF91CF910895CF93C82F863018F081E046
:1005D0000E94E30214BCC5BD81E080936E00CF9100
:1005E0000895CF93C82F863018F081E00E94F10261
:1005F00014BCC5BDCF910895CF93DF93C82FD62FDC
:10060000863018F081E00E94FC02D33621F0DD36FE
:1006100029F483E801C08BE884BD04C06DE68C2F0B
:100620000E94FC02C5BD81E080936E00DF91CF91F6
:10063000089515BC08959C019FB7F89430938500E8
:10064000209384009FBF08959C019FB7F894309336
:100650008900209388009FBF08952FB7F894809158
:100660008400909185002FBF08952FB7F894809152
:100670008800909189002FBF089591E090936F00BA
:100680001092800021E030E001C0220F8A95EAF745
:10069000209381000895CF93C62F0E942403C86041
:1006A000C093810082E080936F00CF9108951092F3
:1006B000810008959091C00095FFFCCF8093C60003
:1006C00080E090E00895CF93DF931F92CDB7DEB71F
:1006D000809143018823F1F016BC1092AF01BE0156
:1006E0006F5F7F4F89EA91E00E948802813031F08C
:1006F000898190E00F90DF91CF9108958091AF01B3
:100700008230B0F783B7816083BF889583B78E7FCF
:1007100083BFE5CFBE016F5F7F4F89EA91E00E9402
:100720008802813029F783B7816083BF889583B7BA
:100730008E7F83BFEFCF10924301089581E08093B5
:10074000430108951092C50080E18093C400E0EC5D
:10075000F0E080818260808308951092C50087E672
:100760008093C400E0ECF0E080818D7F8083089569
:10077000882319F00E94A20302C00E94AD0388E9F9
:100780008093C10086E08093C20044E665E471E096
:1007900089EA91E00E9481028CE191E09093DD0171
:1007A0008093DC0180E091E09093DB018093DA019B
:1007B0008EE091E09093DF018093DE0108951F9217
:1007C0000F920FB60F9211242F933F934F935F9385
:1007D0006F937F938F939F93AF93BF93EF93FF9309
:1007E0006091C6006093AE0189EA91E00E94A30285
:1007F000FF91EF91BF91AF919F918F917F916F91F9
:100800005F914F913F912F910F900FBE0F901F90CE
:1008100018950FB6F894A895809160008861809330
:100820006000109260000FBE08958A3028F088E1C1
:100830008093600080E406C08064909160009861BD
:100840009093600080936000089584B7877F84BF91
:10085000E0E6F0E080818861808310820895189539
:1008600081E080934401089510924401089580E04E
:1008700090E020E030E040E053B7516053BF8895EE
:1008800053B75E7F53BF53B155FB662760F970E0E5
:10089000FB01022E01C0EE0F0A94EAF74E2B2F5FE8
:1008A0003F4F2830310541F7FC01E055FE4F4083B2
:1008B00001968A329105E9F60895CF93DF930E945D
:1008C0001903C0E0D0E081E00E94F10286B5FE018C
:1008D000E055FE4F80830E94190383B7816083BF78
:1008E000889583B78E7F83BF2196CA32D10559F789
:1008F000DF91CF9108950F931F93CF93DF938C01D6
:10090000EB010E94090480E00E94150480914401DB
:10091000811105C025980E943704259A05C081E001
:100920000E94F1020E945D040E94250420E030E054
:1009300080E090E0F901E055FE4F4081840F911D69
:100940002F5F3F4F2A323105A9F7885F9740873ED6
:10095000994198F420E0822F90E08C179D0750F485
:10096000FC01E055FE4F3081F801E80FF91F30839C
:100970002F5FF1CF81E090E002C080E090E0DF9156
:10098000CF911F910F9108950E946900789483B7C9
:10099000816083BF889583B78E7F83BFF8CFEE0FCA
:1009A000FF1F0590F491E02D0994FB01DC0104C0C8
:1009B0008D910190801921F441505040C8F7881B57
:1009C000990B08950F931F93CF93DF93FB0123811E
:1009D00021FD03C08FEF9FEF2CC022FF16C0468180
:1009E0005781248135814217530744F4A081B18196
:1009F0009D012F5F3F4F318320838C932681378168
:100A00002F5F3F4F3783268314C08B01EC01FB011E
:100A10000084F185E02D0995892BE1F6D801169621
:100A20008D919C911797019617969C938E9316978C
:100A3000CE01DF91CF911F910F9108950F931F93D6
:100A4000CF93DF93E091DC01F091DD01238121FF61
:100A50001BC08C01D0E0C0E0F80181918F01609152
:100A6000DC017091DD01DB011896ED91FC91199785
:100A7000882331F00995892B79F3DFEFCFEFECCFA5
:100A80008AE00995892B19F08FEF9FEF02C08D2F17
:100A90009C2FDF91CF911F910F910895AEE0B0E0B0
:100AA000E4E5F5E00C9433080D891E898F89988D53
:100AB00026E02C831A83098397FF02C080E090E828
:100AC00001979E838D83AE01455E5F4F698D7A8D60
:100AD000CE0101960E947E054D815E8157FD0AC0C0
:100AE0002F813885421753070CF49A01F801E20F61
:100AF000F31F10822E96E4E00C944F08ABE0B0E0B8
:100B0000E4E8F5E00C9425086C017B018A01FC0106
:100B100017821682838181FFCCC1CE0101963C01F0
:100B2000F6019381F70193FD859193FF81917F01F8
:100B3000882309F4BAC1853239F493FD859193FF76
:100B400081917F01853229F4B60190E00E94E20490
:100B5000E7CF912C212C312CFFE1F315D8F08B320B
:100B600079F038F4803279F08332A1F4232D2061BA
:100B70001DC08D3261F0803369F4232D216016C0D1
:100B8000832D8260382EE32DE4603E2E2AC0F32DA3
:100B9000F8601DC037FC2DC020ED280F2A3040F032
:100BA0008E32B9F436FC81C1232D2064322E19C057
:100BB00036FE06C08AE0989E200D1124922E11C0A8
:100BC000EAE02E9E200D1124222EF32DF0623F2EFE
:100BD00008C08C3621F4832D8068382E02C08836F8
:100BE00041F4F70193FD859193FF81917F0181117C
:100BF000B3CF982F9F7D9554933028F40C5F1F4FEF
:100C00009FE399830DC0833631F0833771F08335CC
:100C100009F059C021C0F801808189830E5F1F4F00
:100C200088248394912C530113C02801F2E04F0EC5
:100C3000511CF801A080B18036FE03C0692D70E020
:100C400002C06FEF7FEFC5010E946A074C0182016D
:100C5000F32DFF773F2E16C0280122E0420E511CD3
:100C6000F801A080B18036FE03C0692D70E002C09B
:100C70006FEF7FEFC5010E945F074C01F32DF06815
:100C80003F2E820133FC1BC0822D90E0881699060E
:100C9000B0F4B60180E290E00E94E2042A94F4CF1E
:100CA000F50137FC859137FE81915F01B60190E037
:100CB0000E94E20421102A9421E0821A91088114F2
:100CC000910471F7E8C0843611F0893641F5F801D6
:100CD00037FE07C060817181828193810C5F1F4F55
:100CE00008C060817181072E000C880B990B0E5F84
:100CF0001F4FF32DFF763F2E97FF09C090958095EB
:100D0000709561957F4F8F4F9F4FF0683F2E2AE07F
:100D100030E0A3010E947507882E861845C08537EC
:100D200031F4232D2F7EB22E2AE030E025C0932D02
:100D3000997FB92E8F36C1F018F4883579F0B5C097
:100D4000803719F0883721F0B0C0E92FE061BE2E5E
:100D5000B4FE0DC0FB2DF460BF2E09C034FE0AC0E6
:100D6000292F2660B22E06C028E030E005C020E121
:100D700030E002C020E132E0F801B7FE07C0608138
:100D80007181828193810C5F1F4F06C060817181E8
:100D900080E090E00E5F1F4FA3010E947507882E30
:100DA0008618FB2DFF773F2E36FE0DC0232D2E7F9C
:100DB000A22E891458F434FE0BC032FC09C0832DD6
:100DC0008E7EA82E05C0B82CA32C03C0B82C01C061
:100DD000B92CA4FE0FC0FE01E80DF11D8081803307
:100DE00021F49A2D997EA92E09C0A2FE06C0B394C3
:100DF000B39404C08A2D867809F0B394A3FC11C083
:100E0000A0FE06C0B21488F4280C922C9B180EC0C9
:100E1000B21460F4B60180E290E00E94E204B39460
:100E2000F7CFB21418F42B1802C0982C212CA4FE72
:100E300010C0B60180E390E00E94E204A2FE17C059
:100E4000A1FC03C088E790E002C088E590E0B6010D
:100E50000CC08A2D867859F0A1FE02C08BE201C039
:100E600080E2A7FC8DE2B60190E00E94E2048914C2
:100E700038F4B60180E390E00E94E2049A94F7CF40
:100E80008A94F301E80DF11D8081B60190E00E9483
:100E9000E2048110F5CF222009F442CEB60180E2AF
:100EA00090E00E94E2042A94F6CFF60186819781B1
:100EB00002C08FEF9FEF2B96E2E10C944108FC01FA
:100EC0000590615070400110D8F7809590958E0F75
:100ED0009F1F0895FC016150704001900110D8F7E8
:100EE000809590958E0F9F1F0895FA01AA272830AC
:100EF00051F1203181F1E8946F936E7F6E5F7F4FE7
:100F00008F4F9F4FAF4FB1E03ED0B4E03CD0670F62
:100F1000781F891F9A1FA11D680F791F8A1F911DB5
:100F2000A11D6A0F711D811D911DA11D20D009F405
:100F300068943F912AE0269F11243019305D319347
:100F4000DEF6CF010895462F4770405D4193B3E030
:100F50000FD0C9F7F6CF462F4F70405D4A3318F0D7
:100F6000495D31FD4052419302D0A9F7EACFB4E088
:100F7000A6959795879577956795BA95C9F7009740
:100F80006105710508959B01AC010A2E06945795E1
:100F9000479537952795BA95C9F7620F731F841F38
:100FA000951FA01D0895DC01CB01FC01F999FECF2E
:100FB00006C0F2BDE1BDF89A319600B40D924150E1
:100FC0005040B8F70895F999FECF92BD81BDF89AC7
:100FD000992780B50895DC01A40FB51F41505040FA
:100FE00048F0CB01840F951F2E910E94FC074150C1
:100FF0005040D0F70895262FF999FECF92BD81BDBC
:10100000F89A019700B4021639F01FBA20BD0FB646
:10101000F894FA9AF99A0FBE0895DC01CB0103C047
:101020002D910E94180841505040D0F70895262F66
:10103000F999FECF1FBA92BD81BD20BD0FB6F894BD
:10104000FA9AF99A0FBE019608952F923F924F9205
:101050005F926F927F928F929F92AF92BF92CF9248
:10106000DF92EF92FF920F931F93CF93DF93CDB751
:10107000DEB7CA1BDB0B0FB6F894DEBF0FBECDBFC9
:1010800009942A88398848885F846E847D848C849A
:101090009B84AA84B984C884DF80EE80FD800C81A3
:1010A0001B81AA81B981CE0FD11D0FB6F894DEBF86
:0C10B0000FBECDBFED010895F894FFCFF6
:1010BC0000000001000000000000630300000000BD
:1010CC000002000000005A030000000000000002B3
:1010DC00000000005A030000000025640053686FF4
:1010EC00756C646E27742068617070656E0D0000FD
:00000001FF
