:100000000C9434000C9451000C9451000C94510049
:100010000C9451000C9451000C9451000C9451001C
:100020000C9451000C9451000C9451000C9451000C
:100030000C9451000C9451000C9451000C945100FC
:100040000C9451000C9451000C941B010C94510021
:100050000C9451000C9453000C9451000C945100DA
:100060000C9451000C94510011241FBECFEFD8E026
:10007000DEBFCDBF11E0A0E0B1E0E6E6F3E002C0F4
:1000800005900D92AC31B107D9F721E0ACE1B1E0B8
:1000900001C01D92AF32B207E1F70E946E010C94CD
:1000A000B1010C9400001F920F920FB60F92112411
:1000B0008F938091790087BD8F910F900FBE0F9025
:1000C0001F90189590E690937C00863010F08FEA90
:1000D00001C0886A80937A000895FC01718360836F
:1000E0004483128213820895FC012FB7F894928101
:1000F0008381981303C02FBF81E0089581E0890FA9
:100100003481831708F080E0A081B181A90FB11D6F
:100110009C91DB019C9382832FBF80E00895FC01BA
:100120002FB7F89483818F5F9481891708F080E05E
:100130003FB7F8949281891307C091E0980F4481EA
:10014000941708F090E092833FBF9381A081B18122
:10015000A90FB11D6C9383832FBF089514BC863003
:1001600008F081E085BD81E080936E00089593E8FA
:1001700094BD863008F081E085BD81E080936E00FB
:10018000089515BC08959C019FB7F894309385009D
:10019000209384009FBF089591E090936F0021E029
:1001A00030E001C0220F8A95EAF72093810008957C
:1001B0009091C00095FFFCCF8093C60080E090E056
:1001C0000895CF93DF931F92CDB7DEB7BE016F5F67
:1001D0007F4F84E291E00E9474008130B9F38981FD
:1001E00090E00F90DF91CF9108959B01AC0160E406
:1001F00072E48FE090E00E948F012150310930932A
:10020000C5002093C40088E98093C10086E08093F4
:10021000C20048E06CE171E084E291E00E946D0070
:10022000E9E2F1E08EE091E09383828380E091E067
:100230009183808308951F920F920FB60F9211241D
:100240002F933F934F935F936F937F938F939F93DE
:10025000AF93BF93EF93FF936091C60084E291E068
:100260000E948F00FF91EF91BF91AF919F918F916D
:100270007F916F915F914F913F912F910F900FBEA2
:100280000F901F90189504B603FE0AC094B7977F8D
:1002900094BF90916000986190936000109260000C
:1002A0008A3028F088E18093600080E404C098E1FF
:1002B00090936000806480936000089504B603FE0C
:1002C0000AC084B7877F84BF809160008861809373
:1002D00060001092600010926000089580916400A8
:1002E0008E7F8093640083B7817F83BF569A80E6B8
:1002F00080937C008FEA80937A0083E884BD81E05C
:1003000085BD789480917A00806480937A0083B769
:10031000816083BF889583B78E7F83BFF8CFA1E2CA
:100320001A2EAA1BBB1BFD010DC0AA1FBB1FEE1F6F
:10033000FF1FA217B307E407F50720F0A21BB30BBA
:10034000E40BF50B661F771F881F991F1A9469F736
:1003500060957095809590959B01AC01BD01CF0192
:060360000895F894FFCFA0
:1003660000000001000000000000E10000000000A5
:0C037600000200000000D80000000000A1
:00000001FF
