:100000000C9434000C9451000C9451000C94510049
:100010000C9451000C9451000C9451000C9451001C
:100020000C9451000C9451000C9451000C9451000C
:100030000C9451000C9451000C9451000C945100FC
:100040000C9451000C9451000C945E010C945100DE
:100050000C9451000C9451000C9451000C945100DC
:100060000C9451000C94510011241FBECFEFD8E026
:10007000DEBFCDBF11E0A0E0B1E0E0E8F9E002C0F2
:1000800005900D92A032B107D9F721E0A0E2B1E0CE
:1000900001C01D92A633B207E1F70E94A1010C94A2
:1000A000BE040C940000CF92DF92EF92FF920F9368
:1000B0001F93CF93DF936C017B018A01DFB7F89424
:1000C000C3B1C5FBCC27C0F91F92CF938CE191E05F
:1000D0009F938F930E94E0010F900F900F900F90CD
:1000E000F7018081F801C81779F08181843068F0C8
:1000F000F701C083F8011182F7018081811105C0E9
:1001000081E0F601808301C01082DFBFDF91CF91D3
:100110001F910F91FF90EF90DF90CF90089583B7DC
:10012000817F83BF60E875E280E090E00E94380143
:10013000259A2D9A2598559A109221011092200106
:100140001092220180E00C94860190E690937C004E
:10015000863010F08FEA01C0886A80937A00089593
:10016000FC01718360834483128213820895FC0131
:100170002FB7F89492818381981303C02FBF81E039
:10018000089581E0890F3481831708F080E0A08111
:10019000B181A90FB11D9C91DB019C9382832FBF7C
:1001A00080E00895FC012FB7F89483818F5F9481DC
:1001B000891708F080E03FB7F8949281891307C04F
:1001C00091E0980F4481941708F090E092833FBF2C
:1001D0009381A081B181A90FB11D6C9383832FBF3F
:1001E000089514BC863008F081E085BD81E08093DD
:1001F0006E00089593E894BD863008F081E085BDD7
:1002000081E080936E00089515BC08959C019FB70E
:10021000F89430938500209384009FBF089591E067
:1002200090936F0021E030E001C0220F8A95EAF739
:100230002093810008959091C00095FFFCCF80939A
:10024000C60080E090E00895CF93DF931F92CDB772
:10025000DEB7BE016F5F7F4F8BE291E00E94B70077
:100260008130B9F3898190E00F90DF91CF910895AB
:100270009B01AC0160E472E48FE090E00E94BE015B
:10028000215031093093C5002093C40088E9809340
:10029000C10086E08093C20048E063E271E08BE237
:1002A00091E00E94B000E0E3F1E08EE091E0938302
:1002B000828380E091E09183808308951F920F9262
:1002C0000FB60F9211242F933F934F935F936F9329
:1002D0007F938F939F93AF93BF93EF93FF9360911F
:1002E000C6008BE291E00E94D200FF91EF91BF9196
:1002F000AF919F918F917F916F915F914F913F91BE
:100300002F910F900FBE0F901F90189504B603FE0B
:100310000AC094B7977F94BF9091600098619093C2
:100320006000109260008A3028F088E180936000BD
:1003300080E404C098E19093600080648093600042
:1003400008950E948F007894C0E280912201882352
:1003500029F08BB18C278BB91092220183B7816071
:1003600083BF889583B78E7F83BF40E251E061E20F
:1003700071E082E291E00E945300E7CFA1E21A2EE1
:10038000AA1BBB1BFD010DC0AA1FBB1FEE1FFF1F39
:10039000A217B307E407F50720F0A21BB30BE40B89
:1003A000F50B661F771F881F991F1A9469F76095D0
:1003B0007095809590959B01AC01BD01CF0108958A
:1003C000A0E0B0E0E6EEF1E00C949704AE014B5FE4
:1003D0005F4FFA0161917191AF018091320190916B
:1003E00033010E94F601E2E00C94B304ABE0B0E00C
:1003F000ECEFF1E00C9487046C017B018A01FC01B5
:1004000017821682838181FFCCC1CE0101963C0107
:10041000F6019381F70193FD859193FF81917F010F
:10042000882309F4BAC1853239F493FD859193FF8D
:1004300081917F01853229F4B60190E00E94ED039D
:10044000E7CF912C212C312CFFE1F315D8F08B3222
:1004500079F038F4803279F08332A1F4232D2061D1
:100460001DC08D3261F0803369F4232D216016C0E8
:10047000832D8260382EE32DE4603E2E2AC0F32DBA
:10048000F8601DC037FC2DC020ED280F2A3040F049
:100490008E32B9F436FC81C1232D2064322E19C06E
:1004A00036FE06C08AE0989E200D1124922E11C0BF
:1004B000EAE02E9E200D1124222EF32DF0623F2E15
:1004C00008C08C3621F4832D8068382E02C088360F
:1004D00041F4F70193FD859193FF81917F01811193
:1004E000B3CF982F9F7D9554933028F40C5F1F4F06
:1004F0009FE399830DC0833631F0833771F08335E4
:1005000009F059C021C0F801808189830E5F1F4F17
:1005100088248394912C530113C02801F2E04F0EDC
:10052000511CF801A080B18036FE03C0692D70E037
:1005300002C06FEF7FEFC5010E94E2034C01820110
:10054000F32DFF773F2E16C0280122E0420E511CEA
:10055000F801A080B18036FE03C0692D70E002C0B2
:100560006FEF7FEFC5010E94D7034C01F32DF068B8
:100570003F2E820133FC1BC0822D90E08816990625
:10058000B0F4B60180E290E00E94ED032A94F4CF2B
:10059000F50137FC859137FE81915F01B60190E04E
:1005A0000E94ED0321102A9421E0821A91088114FF
:1005B000910471F7E8C0843611F0893641F5F801ED
:1005C00037FE07C060817181828193810C5F1F4F6C
:1005D00008C060817181072E000C880B990B0E5F9B
:1005E0001F4FF32DFF763F2E97FF09C09095809502
:1005F000709561957F4F8F4F9F4FF0683F2E2AE097
:1006000030E0A3010E942904882E861845C0853752
:1006100031F4232D2F7EB22E2AE030E025C0932D19
:10062000997FB92E8F36C1F018F4883579F0B5C0AE
:10063000803719F0883721F0B0C0E92FE061BE2E75
:10064000B4FE0DC0FB2DF460BF2E09C034FE0AC0FD
:10065000292F2660B22E06C028E030E005C020E138
:1006600030E002C020E132E0F801B7FE07C060814F
:100670007181828193810C5F1F4F06C060817181FF
:1006800080E090E00E5F1F4FA3010E942904882E96
:100690008618FB2DFF773F2E36FE0DC0232D2E7FB3
:1006A000A22E891458F434FE0BC032FC09C0832DED
:1006B0008E7EA82E05C0B82CA32C03C0B82C01C078
:1006C000B92CA4FE0FC0FE01E80DF11D808180331E
:1006D00021F49A2D997EA92E09C0A2FE06C0B394DA
:1006E000B39404C08A2D867809F0B394A3FC11C09A
:1006F000A0FE06C0B21488F4280C922C9B180EC0E1
:10070000B21460F4B60180E290E00E94ED03B3946D
:10071000F7CFB21418F42B1802C0982C212CA4FE89
:1007200010C0B60180E390E00E94ED03A2FE17C066
:10073000A1FC03C088E790E002C088E590E0B60124
:100740000CC08A2D867859F0A1FE02C08BE201C050
:1007500080E2A7FC8DE2B60190E00E94ED038914CF
:1007600038F4B60180E390E00E94ED039A94F7CF4D
:100770008A94F301E80DF11D8081B60190E00E949A
:10078000ED038110F5CF222009F442CEB60180E2BC
:1007900090E00E94ED032A94F6CFF60186819781BE
:1007A00002C08FEF9FEF2B96E2E10C94A304FC01B3
:1007B0000590615070400110D8F7809590958E0F8C
:1007C0009F1F0895FC016150704001900110D8F7FF
:1007D000809590958E0F9F1F08950F931F93CF9331
:1007E000DF93FB01238121FD03C08FEF9FEF2CC01E
:1007F00022FF16C046815781248135814217530755
:1008000044F4A081B1819D012F5F3F4F318320834C
:100810008C93268137812F5F3F4F3783268314C007
:100820008B01EC01FB010084F185E02D0995892BFA
:10083000E1F6D80116968D919C911797019617961F
:100840009C938E931697CE01DF91CF911F910F91BC
:100850000895FA01AA27283051F1203181F1E89456
:100860006F936E7F6E5F7F4F8F4F9F4FAF4FB1E0A3
:100870003ED0B4E03CD0670F781F891F9A1FA11D9E
:10088000680F791F8A1F911DA11D6A0F711D811D9F
:10089000911DA11D20D009F468943F912AE0269F64
:1008A00011243019305D3193DEF6CF010895462FC3
:1008B0004770405D4193B3E00FD0C9F7F6CF462FA4
:1008C0004F70405D4A3318F0495D31FD405241930D
:1008D00002D0A9F7EACFB4E0A695979587957795CA
:1008E0006795BA95C9F700976105710508959B0151
:1008F000AC010A2E06945795479537952795BA95DA
:10090000C9F7620F731F841F951FA01D08952F92B2
:100910003F924F925F926F927F928F929F92AF928F
:10092000BF92CF92DF92EF92FF920F931F93CF93DC
:10093000DF93CDB7DEB7CA1BDB0B0FB6F894DEBF73
:100940000FBECDBF09942A88398848885F846E8499
:100950007D848C849B84AA84B984C884DF80EE80E3
:10096000FD800C811B81AA81B981CE0FD11D0FB6EC
:10097000F894DEBF0FBECDBFED010895F894FFCF10
:100980000000000100000000000024010000000041
:100990000002000000001B010000000025640000B0
:00000001FF
