:100000000C9434000C943E000C943E000C943E0082
:100010000C943E000C943E000C943E000C943E0068
:100020000C943E000C943E000C943E000C943E0058
:100030000C943E000C943E000C943E000C943E0048
:100040000C9440000C943E000C943E000C943E0036
:100050000C943E000C943E000C943E000C943E0028
:100060000C943E000C943E0011241FBECFEFD8E04C
:10007000DEBFCDBF0E944A000C945D000C940000CE
:100080001F920F920FB60F9211240F900FBE0F9078
:100090001F901895F89483B7817F83BF569A80E8A4
:1000A00087BD83E884BD84E085BD80916E0081605A
:0E00B00080936E0016BC7894FFCFF894FFCFBB
:00000001FF
