:100000000C9434000C943E000C943E000C943E0082
:100010000C943E000C943E000C943E000C943E0068
:100020000C943E000C943E000C943E000C94400056
:100030000C943E000C943E000C943E000C943E0048
:100040000C943E000C943E000C943E000C943E0038
:100050000C943E000C943E000C943E000C943E0028
:100060000C943E000C943E0011241FBECFEFD8E04C
:10007000DEBFCDBF0E9452000C9490000C94000093
:100080001F920F920FB60F9211248F939F939BB1E3
:1000900080E189278BB99F918F910F900FBE0F90B0
:1000A0001F901895F894809164008F6E809364007F
:1000B00080916400877F8093640083B7817F83BFD2
:1000C000549A809181008D7F80938100809181007E
:1000D0008E7F809381008091810084608093810075
:1000E00083B5816083BD82E19AE790938900809314
:1000F00088008091810088608093810080916F00EA
:10010000826080936F001092850010928400789432
:1001100083B7816083BF889583B78E7F83BFF8CF15
:04012000F894FFCF81
:00000001FF
