:100000000C9434000C9449000C9449000C94490061
:100010000C9449000C9449000C9449000C9449003C
:100020000C9449000C9449000C9449000C9449002C
:100030000C9449000C9449000C9449000C9449001C
:100040000C9449000C9449000C9449000C9449000C
:100050000C9449000C9449000C9449000C944900FC
:100060000C9449000C94490011241FBECFEFD8E036
:10007000DEBFCDBF11E0A0E0B1E0E6EDF0E002C0F0
:1000800005900D92A033B107D9F70E944B000C9454
:1000900069000C940000259A2D9880E0E82FF0E08C
:1000A000E050FF4F90819E3241F09D3321F091113D
:1000B0000EC080E00CC02D9A01C02D982FEF39E6BC
:1000C00098E1215030409040E1F700C000008F5F80
:0600D000E5CFF894FFCF1C
:1000D6003D2E3D2E3D2E2E2E3D3D2E2E2E2E2E3DE0
:1000E6003D2E3D2E2E2E3D2E3D3D3D2E3D3D3D2EA3
:1000F6002E2E3D2E3D2E3D2E2E2E2E2E2E2E2E001B
:00000001FF
