:100000000C9434000C943E000C943E000C943E0082
:100010000C943E000C943E000C943E000C943E0068
:100020000C943E000C943E000C943E000C9449004D
:100030000C943E000C943E000C943E000C943E0048
:100040000C943E000C943E000C943E000C943E0038
:100050000C943E000C943E000C943E000C943E0028
:100060000C943E000C943E0011241FBECFEFD8E04C
:10007000DEBFCDBF0E9473000C948D000C94000075
:100080009C019FB7F89430938500209384009FBF14
:1000900008951F920F920FB60F9211242F933F9342
:1000A0004F935F936F937F938F939F93AF93BF9380
:1000B000EF93FF9395B180E2892785B980E090E0C6
:1000C0000E944000FF91EF91BF91AF919F918F915E
:1000D0007F916F915F914F913F912F910F900FBE44
:1000E0000F901F901895259AB19A80916F008260A9
:1000F00080936F00109280008091810084608093D3
:10010000810082E19AE790938900809388001092A1
:0E0110008500109284007894FFCFF894FFCF02
:00000001FF
