:100000000C9434000C943E000C943E000C943E0082
:100010000C943E000C943E000C943E000C943E0068
:100020000C943E000C943E000C943E000C943E0058
:100030000C943E000C943E000C943E000C943E0048
:100040000C943E000C943E000C943E000C943E0038
:100050000C943E000C9440000C943E000C943E0026
:100060000C943E000C943E0011241FBECFEFD8E04C
:10007000DEBFCDBF0E944F000C947E000C940000A8
:100080001F920F920FB60F9211248F9380917900D7
:1000900087BD8F910F900FBE0F901F901895809184
:1000A00064008F6E80936400809164008F7D8093E4
:1000B0006400809164008E7F8093640083B7817FA9
:1000C00083BF569A80917A008F6A80937A0080E687
:1000D00080937C0017BC83E884BD81E085BD16BC9D
:1000E000789480917A00806480937A0083B78160ED
:1000F00083BF889583B78E7F83BFF8CFF894FFCFF7
:00000001FF
