:100000000C9434000C9451000C9451000C94510049
:100010000C9451000C9451000C9453000C9451001A
:100020000C9451000C9451000C9451000C9451000C
:100030000C9451000C9451000C9451000C945100FC
:100040000C9451000C9451000C9451000C945100EC
:100050000C9451000C9451000C9451000C945100DC
:100060000C9451000C94510011241FBECFEFD8E026
:10007000DEBFCDBF11E0A0E0B1E0E0EBF1E002C0F7
:1000800005900D92A432B107D9F721E0A4E2B1E0C6
:1000900001C01D92A532B207E1F70E948C000C94BA
:1000A000D6000C9400001F920F920FB60F921124ED
:1000B0005F936F937F938F939F93AF93BF93EF93D0
:1000C000FF93E0912401F0E0E050FF4F80818D33F9
:1000D00011F42D9A09C0E0912401F0E0E050FF4FA7
:1000E00080818E3209F42D988091240190E0019650
:1000F00063E270E00E94AE0080932401FF91EF91D3
:10010000BF91AF919F918F917F916F915F910F9070
:100110000FBE0F901F901895F894809164008F6E19
:100120008093640083B7817F846083BF259A809128
:10013000600088618093600085E480936000F8949B
:1001400083B7816083BF85B7806685BF8F7D85BF9C
:100150007894889583B78E7F83BFF1CF97FB072E66
:1001600016F4009407D077FD09D00E94C20007FC66
:1001700005D03EF4909581959F4F089570956195B7
:100180007F4F0895AA1BBB1B51E107C0AA1FBB1FCD
:10019000A617B70710F0A61BB70B881F991F5A9513
:1001A000A9F780959095BC01CD010895F894FFCFF3
:1001B0003D2E3D2E3D2E2E2E3D3D3D2E3D3D3D2ED8
:1001C0003D3D3D2E2E2E3D2E3D2E3D2E2E2E2E2EF5
:0401D0002E2E2E00A1
:00000001FF
