:100000000C9434000C9449000C9449000C94490061
:100010000C9449000C9449000C9449000C9449003C
:100020000C9449000C9449000C9449000C9449002C
:100030000C9449000C9449000C9449000C9449001C
:100040000C9449000C9449000C9449000C9449000C
:100050000C9449000C9449000C9449000C944900FC
:100060000C9449000C94490011241FBECFEFD8E036
:10007000DEBFCDBF11E0A0E0B1E0E6EFF0E002C0EE
:1000800005900D92A432B107D9F70E944B000C9451
:1000900079000C940000CF93DF93CDB7DEB7A39720
:1000A0000FB6F894DEBF0FBECDBF83E2E0E0F1E013
:1000B000DE01119601900D928A95E1F7259A9E0135
:1000C0002C5D3F4FFE01319681918D3311F42D9AB5
:1000D00003C08E3251F42D984FEF89E698E14150DC
:1000E00080409040E1F700C00000E217F30761F79D
:0600F000E9CFF894FFCFF8
:1000F6003D2E3D2E3D2E2E2E3D3D3D2E3D3D3D2E93
:100106003D3D3D2E2E2E3D2E3D2E3D2E2E2E2E2EAF
:040116002E2E2E005B
:00000001FF
