:100000000C9434000C9451000C9451000C94510049
:100010000C9451000C9451000C9451000C9451001C
:100020000C9451000C9451000C9451000C9453000A
:100030000C9451000C9451000C9451000C945100FC
:100040000C9451000C9451000C9451000C945100EC
:100050000C9451000C9451000C9451000C945100DC
:100060000C9451000C94510011241FBECFEFD8E026
:10007000DEBFCDBF11E0A0E0B1E0E8EEF1E002C0EC
:1000800005900D92A432B107D9F721E0A4E2B1E0C6
:1000900001C01D92A532B207E1F70E948C000C94BA
:1000A000F2000C9400001F920F920FB60F921124D1
:1000B0005F936F937F938F939F93AF93BF93EF93D0
:1000C000FF93E0912401F0E0E050FF4F80818D33F9
:1000D00011F42D9A09C0E0912401F0E0E050FF4FA7
:1000E00080818E3209F42D988091240190E0019650
:1000F00063E270E00E94CA0080932401FF91EF91B7
:10010000BF91AF919F918F917F916F915F910F9070
:100110000FBE0F901F901895F894809164008F6E19
:100120008093640080916400877F8093640083B72C
:10013000817F83BF259A809181008D7F809381008C
:10014000809181008E7F8093810080918100846006
:100150008093810083B5816083BD82E19AE79093AB
:10016000890080938800809181008860809381005D
:1001700080916F00826080936F00109285001092D2
:100180008400789483B7816083BF889583B78E7F1E
:1001900083BFF8CF97FB072E16F4009407D077FDA6
:1001A00009D00E94DE0007FC05D03EF490958195B1
:1001B0009F4F0895709561957F4F0895AA1BBB1BB3
:1001C00051E107C0AA1FBB1FA617B70710F0A61B57
:1001D000B70B881F991F5A95A9F780959095BC0178
:0801E000CD010895F894FFCF52
:1001E8003D2E3D2E3D2E2E2E3D3D3D2E3D3D3D2EA0
:1001F8003D3D3D2E2E2E3D2E3D2E3D2E2E2E2E2EBD
:040208002E2E2E0068
:00000001FF
